:020000040800F2
:10000000C00400209D0100083F130008F9100008FB
:100010003D130008BD03000859140008000000004B
:100020000000000000000000000000006313000852
:10003000BF030008000000006113000865130008FA
:10004000B7010008B7010008B7010008B7010008B0
:10005000B7010008B7010008B7010008B7010008A0
:10006000B7010008B7010008B7010008B701000890
:10007000B7010008B7010008B7010008B701000880
:10008000B7010008B7010008B7010008B701000870
:10009000B7010008B7010008B7010008B701000860
:1000A000B7010008B7010008B7010008B701000850
:1000B000B7010008B7010008B7010008B701000840
:1000C000B7010008B7010008B7010008B701000830
:1000D000B7010008B7010008B7010008B701000820
:1000E000B7010008B7010008B7010008B701000810
:1000F000B7010008B7010008B7010008B701000800
:10010000B7010008B7010008B7010008B7010008EF
:10011000B7010008B7010008B7010008B7010008DF
:10012000B7010008B7010008B7010008B7010008CF
:10013000B7010008B7010008B7010008B7010008BF
:10014000B7010008B7010008B7010008B7010008AF
:10015000B7010008B7010008B7010008B70100089F
:10016000B7010008B7010008B7010008B70100088F
:10017000B7010008B7010008B7010008000000003F
:10018000B7010008B7010008DFF80CD000F04AF80A
:100190000048004781170008C00400200648804737
:1001A00006480047FEE7FEE7FEE7FEE7FEE7FEE75C
:1001B000FEE7FEE7FEE7FEE7F91300088901000805
:1001C0002DE9F05F0546002092469B46884606468C
:1001D000814640241BE0284641464746224600F01F
:1001E00042F853465A46C01A914110D31146184658
:1001F000224600F029F82D1A67EB01084F462246E7
:100200000120002100F020F817EB00094E41201ECC
:10021000A4F10104DFDC484631462A464346BDE8E6
:10022000F09F0000064C074D06E0E06840F0010337
:1002300094E8070098471034AC42F6D3FFF7A8FFC4
:10024000341B0008541B0008202A04DB203A00FA63
:1002500002F1002070479140C2F1200320FA03F31D
:10026000194390407047202A04DB203A21FA02F01B
:100270000021704721FA02F3D040C2F120029140E0
:10028000084319467047000070B5154986B0040050
:1002900005D0012C03D0022C01D0032C07D1086813
:1002A00040F008000860086800F0080005900D4E56
:1002B0000D4D694636F8140000900120019002901F
:1002C0000220039055F8240000F07EF836F8141050
:1002D00055F82400002200F05CF906B070BD000063
:1002E000303802401C1B00080C0000200449054A5D
:1002F00031F8101052F82000002200F04AB9000036
:100300001C1B00080C0000200449054A31F810109D
:1003100052F82000012200F03CB900001C1B00082C
:100320000C0000200349044A31F8101052F8200054
:1003300000F02AB91A1B00080000002030B587B071
:10034000040008D11948026842F001020260006806
:1003500000F0010005900020154D164B0222C1B19E
:10036000012914D135F81410CDE902021248CDE963
:10037000001053F82400694600F026F8AD1E002254
:1003800028570F2100F066FB285700F057FB07B0F5
:1003900030BD35F81410CDE90010CDE9020253F854
:1003A0002400694600F010F8F1E700003038024000
:1003B0001A1B00080000002000001110FEE7704723
:1003C0000220FFF7A1FFFEE72DE9F84FDFF888B123
:1003D00000224FF001084FF0030A4FF00F090BF114
:1003E000040E00BF0B6808FA02F42340A3426ED14A
:1003F0004D68022D01D0122D0ED1D50800EB850CD1
:10040000DCF820505607F70E09FA07F6B5430E69D7
:10041000BE402E43CCF82060066855000F790AFADA
:1004200005FC07F0030726EA0C06AF4037430760D8
:100430004E68012E05D0022E03D0112E01D0122EAF
:100440000ED18668CF6826EA0C06AF403743876036
:100450004668A6430C79C4F30014944034434460C6
:10046000C4688E6824EA0C04AE402643C6604C681B
:10047000E4006AD5394C256845F480452560246838
:1004800022F0030504F480440094354C2E19D6F86C
:10049000084895072F0F09FA07F5AC43314DA842DC
:1004A00001D1002529E0304DA84201D1012524E0E9
:1004B0002E4DA84201D102251FE02D4DA84201D1A9
:1004C00003251AE02B4DA84202D1042515E03CE09B
:1004D000294DA84201D105250FE0284DA84201D1A0
:1004E00006250AE0264DA84201D1072505E0254D45
:1004F000A84201D1082500E00925BD402543C6F8E2
:100500000858DBF800405D464E689C43F60300D572
:100510001C432C60DEF8004075464E689C43B603D1
:1005200000D51C432C600C4D08352C684E689C434C
:10053000F60200D51C432C60074D0C352C684E6824
:100540009C43B60200D51C432C60521C102AFFF4B9
:1005500049AFBDE8F88F0000003C0140443802403C
:100560000030014000000240000402400008024048
:10057000000C02400010024000140240001802402B
:10058000001C0240002002400069084000D0012009
:1005900070470AB1816170470904FBE701480068B0
:1005A000000C7047002004E001480068704700001C
:1005B00030000020806B704790F8350070470000D5
:1005C00070B5040004D094F83500002510B106E0A1
:1005D000012070BD84F83450204600F0C5F9022097
:1005E00084F835002068016821F00101016000F005
:1005F00083FB31492268B0FBF1F151602F4A6368F7
:10060000934206D94FF4967359434FF47A73B1FB72
:10061000F3F12368491C1962616891420BD84900C3
:10062000B0FBF1F2C2F30B02042A01D2042019E05C
:10063000B0FBF1F016E0A36883B301EBC10202EB5B
:100640000112B0FBF2F242F4804212052CD06BB3DF
:1006500001EBC10202EB0111B0FBF1F040F480406C
:1006600040F400402168C861D4E9070108432168CB
:100670000860D4E90310084321688860D4E90501C3
:1006800008432168C8602068016841F001010160E9
:10069000A563012084F83500002070BDFFE701EB61
:1006A0004102B0FBF2F2D0E70120DBE701EB4101B0
:1006B000B0FBF1F0D4E7000040420F00A08601003B
:1006C0002DE9F84F044690F83500DDF828B01E46B5
:1006D00015468946012877D155B14EB142F21073C3
:1006E00001226549204600F09FFD0028F3D102E079
:1006F0000120BDE8F88F94F83400012864D04FF051
:10070000010884F834802068016821F400610160E8
:10071000222084F835000027A7635A464946204620
:1007200000F0EBFC28B1A06B84F834700428DFD013
:1007300085E0DFF848A1012E1DD02068DFF83C914C
:10074000022E0168A9F13C092AD041F480610160C0
:100750002068416980690090032E69D8012E17D066
:10076000022E29D05B4600224946204600F05CFD5F
:10077000002864D139E02068016821F480610160BB
:100780002068416981690091016841F4007101604C
:100790005B4600225146204600F046FDF0BB14E0C7
:1007A00021F4806101602068016841F4006101600A
:1007B00020684169806900905B46002249462046D6
:1007C00000F032FD50BB04E054E02068006928705E
:1007D0004AE02068016841F4007101602068006906
:1007E00028702068006968703EE02068016821F484
:1007F000806101602068006905F8010B761EB6B2C1
:100800005B4600224946204600F00EFD30B92068C4
:10081000016841F400710160206800E00FE00069A8
:1008200005F8010B2068006905F8010BB61E17E0FA
:100830005B4600225146204600F0F6FC08B103203A
:1008400057E72068006905F8010B2068761EB6B2EC
:100850004169C943490704D4006905F8010B761EB4
:10086000B6B2002E7FF478AF84F8358084F8347007
:1008700000203EE702203CE702001000400001009B
:100880002DE9F84F044690F83500DDF828A01D4604
:1008900016468946012861D14EB145B142F2107326
:1008A00001222F49204600F0BFFCE8BB02E00120F6
:1008B000BDE8F88F94F8340001284FD04FF00108BC
:1008C00084F834802068016821F4006101601220FE
:1008D00084F835000027A76352464946204600F0B9
:1008E00069FC28B1A06B84F834700428DFD028E0BC
:1008F000206841698069DFF86C90009053460022BF
:100900004946204600F090FCD8B9216816F8010B42
:10091000086120686D1EADB24169C943490707D41B
:1009200045B116F8011B00E018E001616D1EADB283
:10093000002DE3D1534600224946204600F074FCC6
:1009400008B10320B4E72068016841F40071016038
:1009500084F8358084F834700020A9E70220A7E7E6
:10096000020010008000010030B51A4887B001680D
:1009700041F002010160016801F002010591016886
:1009800041F0020101600068042400F002000590BB
:100990004020009012200190012002900220CDE919
:1009A00003040D4D69462846FFF70EFDE001009057
:1009B000694604942846FFF707FD06481030016891
:1009C00041F400110160006800F40010059007B0C8
:1009D00030BD000030380240000402400248016887
:1009E000491C01607047000030000020094810B524
:1009F000016841F400710160016841F480610160A7
:100A0000032000F047F80F2000F006F800F015F87A
:100A1000002010BD003C024010B5044600F052F921
:100A20004FF47A71B0FBF1F000F052FB0022214646
:100A3000501E00F00FF8002010BD704700F01F029C
:100A4000012191404009800000F1E020C0F8001130
:100A500070470000F0B40E4B1B680C46C3F3022332
:100A6000C3F10705042D00D90425191D072901D25A
:100A7000002300E0DB1E012606FA05F1491E214095
:100A800099409E40761E16403143F0BC00F058BCA1
:100A90000CED00E0064900F0070208684FF6FF037E
:100AA000184040EA0220034A1043086070470000E3
:100AB0000CED00E00000FA052DE9F05FDFF8FCA185
:100AC00004460F46DAF80000DFF8F48100F00F0169
:100AD0007B4807F0FF0941F2883508F10808B94260
:100AE00062D28AF80090DAF8001001F00F01B942E2
:100AF0007ED12178890707D5D8F80020A36822F095
:100B0000F0021A43C8F800202178C9072ED0616886
:100B100001291AD002291BD0032919D000688007A7
:100B2000002865DAD8F80000464620F003000843A4
:100B3000C8F80000FFF738FD07466068012810D0AC
:100B400002281AD003281ED029E000688003E7E7B6
:100B500000688001E4E700BFFFF726FDC01BA84244
:100B600059D83068C0F381000128F5D189E000BF71
:100B7000FFF71AFDC01BA8424DD83068C0F38100B2
:100B80000228F5D17DE03068FFF70EFDC01BA842BA
:100B9000F9D940E0FFF708FDC01BA8423BD83068F8
:100BA00010F00C0FF6D16CE02178890707D5D8F842
:100BB0000020A36822F0F0021A43C8F80020217830
:100BC000C9074CD06168012928D0022929D00329FE
:100BD00027D000688007002849DAD8F8002022F0E2
:100BE00003020A43C8F80020FFF7DEFC064600E0D7
:100BF0003DE0606801281DD0022829D0032838D0A4
:100C0000AB464546286810F00C0F28D0FFF7CCFC07
:100C1000811B5945F6D90320BDE8F09F0068800389
:100C2000D9E700688001D6E7FFF7BEFC811B594574
:100C300002D9F0E7AB4645462868C0F38100012899
:100C4000F2D10CE0FFF7B0FC811B594502D9E2E775
:100C5000AB4645462868C0F381000228F2D18AF8E5
:100C60000090DAF8000000F00F00B84209D001202F
:100C7000D2E744462068FFF797FC801BA842F9D9C9
:100C8000C9E72078400707D5D8F80010E26821F4BA
:100C9000E0511143C8F800102078000708D5D8F8B3
:100CA0000010226921F4604141EAC201C8F8001035
:100CB0000F20FFF7B1FE0020AEE70000003C02402D
:100CC0000038024010B500F02DF808490968F022FC
:100CD00092FAA2F201F0F001B2FA82F2D140044A93
:100CE000515CC8400349086010BD0000083802404C
:100CF000241B00081C00002010B5FFF7E3FF074984
:100D000009684FF4E05292FAA2F201F4E051B2FA0B
:100D100082F2D140024A515CC84010BD08380240FE
:100D2000241B000830B51948006810F00C01184861
:100D300012D0441004290ED008290DD11349091FDF
:100D40000A6802F03F030A68550247F6C07204D5EC
:100D5000B4FBF3F003E0204630BDB0FBF3F00B68CA
:100D60000968134092FAA2F2B2FA82F2D3405843D1
:100D70004FF4403292FAA2F201F44031B2FA82F218
:100D8000D140491C4900B0FBF1F030BD08380240A9
:100D90000024F4002DE9F84F04460078DFF81CA386
:100DA000C74DC0074FF000064BD0DAF80010504690
:100DB000C1F38101012908D00068C0F38100022835
:100DC0000AD1281D0068400206D52868800338D55E
:100DD0006068002871D034E0DFF8E49209F102097C
:100DE00089F80060FFF7E0FB804641F2883705E0B4
:100DF000FFF7DAFBA0EB0800B8427DD82868800333
:100E0000F6D4207989F80000606868B1FFF7CCFB60
:100E1000804605E0FFF7C8FBA0EB0800B842ECD81D
:100E200028688003F6D50CE0FFF7BEFB804605E09E
:100E3000FFF7BAFBA0EB0800B842DED828688003B1
:100E4000F6D420789F4F80074FF0010B45D5DAF894
:100E50000010504611F00C0F4FF0F80909D000684F
:100E6000C0F3810002280BD19448001F00684002A3
:100E700006D42868800714D5E06801281DD110E049
:100E8000E068D8B1C7F800B0FFF78EFB804605E0F8
:100E9000FFF78AFBA0EB08006428AED8286880071B
:100EA000F6D5286899FAA9F22169B2FA82F220F0FF
:100EB000F8009140084328600FE0FCE03E60FFF737
:100EC00073FB804606E000BFFFF76EFBA0EB080057
:100ED000642811D828688007F6D42078000729D51F
:100EE000DFF8D8917848616909F16C0999B1C0F8C7
:100EF00000B0FFF759FB00E086E0804606E000BF47
:100F0000FFF752FBA0EB080064287DD8D9F8000059
:100F10008007F5D50EE00660FFF746FB804605E04A
:100F2000FFF742FBA0EB080064286DD8D9F8000059
:100F30008007F5D4207840075AD5604838300168DA
:100F400041F0805101600068DFF8809100F080502E
:100F50000090D9F8001041F48071C9F80010FFF733
:100F600023FB804606E000BFFFF71EFBA0EB080056
:100F7000642849D8D9F80000C005F5D5DFF83C81D0
:100F800008F1680888F80060FFF70EFB41F2883925
:100F9000009005E0FFF708FB0099411A494533D856
:100FA000D8F800008007F5D4207A88F80000A068FF
:100FB00078B1FFF7F9FA009006E000BFFFF7F4FA06
:100FC0000099411A49456ED8D8F800008007F5D538
:100FD0000EE0FFF7E9FA009006E000BFFFF7E4FA41
:100FE0000099411A49455ED8D8F800008007F5D429
:100FF000A069E8B3DAF80010C1F3810102295AD0E0
:1010000002283E6605D000E04DE0FFF7CDFA044629
:101010004CE0FFF7C9FA064605E000BFFFF7C4FA47
:10102000801B64283FD828688001F7D4D4E90701E1
:10103000084347F6C07292FAA2F2616AB2FA82F2EB
:101040009140A26A4FF0FF3303EB52024FF440335A
:1010500093FAA3F3B3FA83F39A40114308434FF092
:10106000706292FAA2F2E16AB2FA82F2914000E072
:101070001FE008431149091F0860C7F860B0FFF777
:1010800093FA044605E000BFFFF78EFA001B6428C0
:1010900009D828688001F7D50BE000BFFFF784FA74
:1010A000001B642802D90320BDE8F88F286880015E
:1010B000F4D40020F8E70120F6E7000008380240E9
:1010C0000038024000004742800E47420070004056
:1010D00010B5401EB0F1807F01D3012010BD4FF04C
:1010E000E02460610F21601700F02AF90020A06160
:1010F00007202061002010BDFEE72DE9F8430446DB
:1011000000680D469146016841F4806101602068E5
:10111000016841F48071016013464FF0011700220D
:101120003946204600F080F898BB206907F1010895
:10113000B0F5804F10D00620216800EAD51646F0A1
:10114000F00008614A46F91D204600F0B3F838B1B6
:10115000A06B04282CD01CE0E8B240F001001DE098
:101160002168E8B208614A464146204600F0A2F8EC
:101170000028EDD12068416981690091016841F43E
:10118000807101604B4600223946204600F04CF841
:1011900010B10320BDE8F88346F0F1002168086132
:1011A0004A464146204600F085F80028D0D1F1E7B4
:1011B0000120EFE770B5044600680D461646016849
:1011C00041F480710160134600224FF00111204666
:1011D00000F02AF898B92069B0F5804F11D00620A8
:1011E000216800EAD51040F0F000086132460D4950
:1011F000204600F05FF838B1A06B042810D003201F
:1012000070BD05F0FE0000E0E8B221680861054904
:101210003246891F204600F04DF80028ECD170BD01
:10122000012070BD080001002DE9F05F1E469046C8
:101230000C460546FFF7B8F981464FF0000A4FF01B
:10124000010BC4F30747B8F1000F09D024E0701C6C
:1012500006D0D6B1FFF7A8F9A0EB0900B04214D828
:101260002868012F06D0806924EA00000004000CE1
:101270001BD0ECE74069F7E7701C0DD02EB1FFF7EB
:1012800093F9A0EB0900B04206D985F835B085F88E
:1012900034A00320BDE8F09F2868012F07D08069A3
:1012A00024EA00000004000CE6D00020F2E74069C8
:1012B000F6E700002DE9F04791460D460446FFF79A
:1012C00073F9824600274FF00108C5F3074628E06E
:1012D00020684069C043400511D42068016841F48A
:1012E0000071016021686FF4806048610420A06390
:1012F00084F8358084F834700120BDE8F087B9F1B6
:10130000FF3F0ED0B9F1000F05D0FFF74DF9A0EB6C
:101310000A01494505D984F8358084F834700320E2
:10132000EBE72068012E07D0D0F8180025EA00006E
:101330000004000CE1D0CBE74069F7E7FEE7704717
:101340000907090E002806DA00F00F0000F1E0207E
:1013500080F8141D704700F1E02080F800147047F9
:1013600070477047FFF73ABB204810B5016892B04C
:1013700041F080510160006800F0805011901C48DD
:10138000016841F4804101600068022400F480405B
:1013900011900120009001908005CDE906400820C1
:1013A00008904FF4A870CDE9090407200B90684617
:1013B000FFF7F0FC0F20CDE90C0400200E904FF455
:1013C000A0500F90E002109005210CA8FFF774FBCD
:1013D000FFF7E4F841F20101884204D105480168B1
:1013E00041F48071016012B010BD0000403802402D
:1013F00000700040003C02401048016841F4700158
:1014000001600F48016841F0010101600C4A0021B0
:101410000832116002680B4B1A400260031D0A4A31
:101420001A60026822F48022026005480C300160D4
:1014300002495806803908607047000088ED00E0D6
:1014400000380240FFFFF6FE1030002401A000F03B
:1014500005B8000020000000FEE700000FB4054BB7
:1014600010B503A9044A029800F018F810BC5DF802
:1014700014FB00005D1700086400002002E008C8AB
:10148000121F08C1002AFAD170477047002001E0FE
:1014900001C1121F002AFBD1704700002DE9FF4F48
:1014A0008DB09B460F460446002606E025280BD04B
:1014B0005A460F999047641C761C20780028F5D175
:1014C00011B03046BDE8F08F0025A84601229849AA
:1014D00000E0054314F8013F203B02FA03F0084204
:1014E000F7D120782E2817D114F8010F45F0040504
:1014F0002A280ED06FF02F022078A0F130010929A0
:101500000AD808EB880102EB410100EB0108641CDA
:10151000F2E757F8048B641C20786C280DD004DCAB
:101520004C2812D06A2811D104E074280DD07A28F2
:101530000CD10AE045F4001507E0617845F4801508
:10154000814202D1641C05F58015641C2278692A49
:1015500045D008DC002AB3D0582A69D0632A10D0BD
:10156000642A08D13BE0702A67D0732A13D0752A09
:101570005CD0782A5CD010465A460F999047761C6A
:10158000D3E017F8040B8DF8000000208DF801005F
:10159000E946012003E057F8049B4FF0FF3069074C
:1015A0004FF0000501D40AE06D1C45450DDA854277
:1015B000FADB19F805100029F6D106E06D1C85420A
:1015C000FCDB19F805100029F8D12E4404E019F8C5
:1015D000010B5A460F9990476D1EF8D2A5E00A20DC
:1015E0000021CDE90801C5F3025002280DD001CF3A
:1015F000C117031E71F100030DDA4FF0000CD0EBA0
:101600000C006CEB01012D2308E0FF1D27F00707FC
:10161000F7E80201EDE72B0504D52B238DF82830E0
:1016200001233BE0EB0739D02023F7E70A2000E055
:1016300010200021CDE9080107E01020002145F02D
:101640000405CDE908014FF00808C5F3025002284F
:101650000FD001CF00214FF0000A2B071FD5702AB1
:101660000DD0DDE908C38CF0100C5CEA030C0CD043
:1016700015E0FF1D27F00707F7E80201EBE740221E
:101680008DF828204FF0010A0BE050EA010306D044
:1016900030238DF828308DF8292002239A46582AC5
:1016A00004D024A20DF120090B9209E026A2F9E74B
:1016B000DDE90823FEF784FD0B9B9B5C09F8013DE7
:1016C00050EA0102F4D1ADEB090020300890680720
:1016D00001D44FF001080899884502DDA8EB01000C
:1016E00000E000208046002506E00AA85A46405D3A
:1016F0000F9990476D1C761C5545F6DB04E03020B1
:101700005A460F999047761CB8F10001A8F10108DC
:10171000F5DC05E019F8010B5A460F999047761C45
:101720000899481E08900029F4DC641CC5E60000F6
:1017300009280100303132333435363738396162A7
:10174000636465660000000030313233343536376B
:1017500038394142434445460000000007490968C2
:10176000C9070AD0054980390968C90705D04FF073
:1017700060410A68002AFCD008707047800E00E0C3
:1017800008B50126FFF732F90020FEF77DFD0220A3
:10179000FEF77AFD0320FEF777FDFFF7E5FD6B48C6
:1017A0006949002501600914C0E90415C561684A4A
:1017B0000562C0E9012130218561C160FEF700FFAB
:1017C000002869D1FFF742FE00210846FEF7B6FD6A
:1017D0000020FEF7A7FD0128FAD10020FEF7A2FDA8
:1017E0000028FAD10320FEF781FD0020FEF77EFDE0
:1017F00058A0FFF733FE42F2107404E05348FEF79E
:10180000D9FE042869D11823594A30214F48009441
:10181000FFF736F80028F1D1FEF776FD04E04B48DB
:10182000FEF7C8FE042858D1484A18233C3230211C
:1018300046480094FEF744FF0028F0D10320FEF74D
:1018400063FD42494A4A3C31172017780B789F4282
:1018500002D0002841D106E0401E80B201F1010112
:1018600002F10102F1D243A0FFF7F8FD37483C3006
:101870005FF01701491E00F8015B89B2FAD23146C8
:1018800043A0FFF7EBFD08E03048FEF793FE042885
:1018900003D043A0FFF7E2FD1FE0354A18231832BA
:1018A00030212A480094FEF7EBFF0028ECD12748AE
:1018B000FEF782FE0128FAD111E02448FEF77AFEF5
:1018C00004280CD029463EA0FFF7C8FD1F48FEF7AC
:1018D00071FE014646A0FFF7C1FDFEF771FD1B4AF0
:1018E00018233C32302119480094FEF7E9FE050028
:1018F000E3D1164D3C352978042902D047A0FFF7E3
:10190000ADFD6968202902D04EA0FFF7A7FDA868A9
:101910000146801C02D055A0FFF7A0FDE9682829E8
:1019200002D05CA0FFF79AFD2969B1F5967F02D03D
:1019300062A0FFF793FD297DFF2902D06BA0FFF77E
:101940008DFD761CF6B29AE7005400406800002036
:10195000801A06005374617274696E6720493243BD
:101960002048616E647368616B652E0D0A0000008B
:101970003400002046696E6973686564204932430B
:101980002048616E647368616B696E672E0D0A0092
:10199000497465726174696F6E2025640D0A0000D8
:1019A0004572726F7220447572696E67205472615D
:1019B0006E736D697373696F6E2E0D0A00000000FF
:1019C0004572726F7220647572696E67205265632A
:1019D000657074696F6E2E20526563656976652047
:1019E0004572726F72206E6F2E2025640D0A000002
:1019F0004572726F7220647572696E6720526563FA
:101A0000657074696F6E2E20493243204572726F83
:101A100072206E6F2E2025640D0A0000434D442075
:101A2000696E636F7272656374206F6E207061639C
:101A30006B65742E20526563656976656420257830
:101A40002E0D0A005820696E636F727265637420F0
:101A50006F6E207061636B65742E205265636569DB
:101A60007665642025642E0D0A0000005920696EF9
:101A7000636F7272656374206F6E207061636B6553
:101A8000742E2052656365697665642025642E0D89
:101A90000A0000005A20696E636F727265637420D9
:101AA0006F6E207061636B65742E2052656365698B
:101AB0007665642025642E0D0A0000004469737465
:101AC000616E636520696E636F7272656374206F07
:101AD0006E207061636B65742E2052656365697654
:101AE00065642025642E0D0A00000000466C6167C5
:101AF00020696E636F7272656374206F6E2070610F
:101B0000636B65742E205265636569766564202574
:101B1000782E0D0A000000000600010000100020D1
:101B200000400080000000000102030401020304E1
:101B300006070809541B0008000000206800000088
:101B40007C140008BC1B000868000020580400003A
:101B50008C1400080000024000100000001000007B
:101B6000000C0240000C0240000C0240000C02403D
:101B70000024F40000000000000000000102030443
:101B8000060708090000000001000000000000FF37
:101B90000000000000000000000000000000000045
:101BA00003FF000000000000000000000000000033
:0C1BB00000000000000000000000000029
:040000050800018965
:00000001FF
